:1000000001288601A601A401A501831617308500E9
:1000100086018312851105110D2826208600051CF6
:100020001428851C1D283D28622000302602031953
:100030000D28A603262086003D2862200A302602CD
:1000400003190D28A60A262086003D2826088207C7
:100050003F3406345B344F3466346D347D340734BA
:100060007F346F34BF340134033407340F341F340A
:100070003F348034A334C834FF34A301A2010030DC
:10008000260203190D2826080A3E2720A300FF3C5C
:100090000319220AA2004C282308A1002208A0006C
:1000A00085115D20A00B5028051C1428851C1D28D7
:1000B00085155D20A10B58284C280A30A400A40BFC
:1000C0005F280800FF30A400FF30A500A50B6628BC
:0600D000A40B64280800E7
:02400E00F23F7F
:00000001FF
